{
  "_format": "hh-sol-artifact-1",
  "contractName": "TokenVesting",
  "sourceName": "contracts/TokenVesting.sol",
  "abi": [
    {
      "inputs": [
        {
          "internalType": "address",
          "name": "_token",
          "type": "address"
        },
        {
          "internalType": "address",
          "name": "_beneficiary",
          "type": "address"
        },
        {
          "internalType": "uint256",
          "name": "_duration",
          "type": "uint256"
        }
      ],
      "stateMutability": "nonpayable",
      "type": "constructor"
    },
    {
      "anonymous": false,
      "inputs": [
        {
          "indexed": false,
          "internalType": "uint256",
          "name": "amount",
          "type": "uint256"
        }
      ],
      "name": "TokensReleased",
      "type": "event"
    },
    {
      "inputs": [],
      "name": "beneficiary",
      "outputs": [
        {
          "internalType": "address",
          "name": "",
          "type": "address"
        }
      ],
      "stateMutability": "view",
      "type": "function"
    },
    {
      "inputs": [],
      "name": "duration",
      "outputs": [
        {
          "internalType": "uint256",
          "name": "",
          "type": "uint256"
        }
      ],
      "stateMutability": "view",
      "type": "function"
    },
    {
      "inputs": [],
      "name": "getVestingDetails",
      "outputs": [
        {
          "internalType": "uint256",
          "name": "",
          "type": "uint256"
        },
        {
          "internalType": "uint256",
          "name": "",
          "type": "uint256"
        },
        {
          "internalType": "uint256",
          "name": "",
          "type": "uint256"
        },
        {
          "internalType": "uint256",
          "name": "",
          "type": "uint256"
        }
      ],
      "stateMutability": "view",
      "type": "function"
    },
    {
      "inputs": [],
      "name": "release",
      "outputs": [],
      "stateMutability": "nonpayable",
      "type": "function"
    },
    {
      "inputs": [],
      "name": "released",
      "outputs": [
        {
          "internalType": "uint256",
          "name": "",
          "type": "uint256"
        }
      ],
      "stateMutability": "view",
      "type": "function"
    },
    {
      "inputs": [],
      "name": "start",
      "outputs": [
        {
          "internalType": "uint256",
          "name": "",
          "type": "uint256"
        }
      ],
      "stateMutability": "view",
      "type": "function"
    },
    {
      "inputs": [],
      "name": "token",
      "outputs": [
        {
          "internalType": "contract IERC20",
          "name": "",
          "type": "address"
        }
      ],
      "stateMutability": "view",
      "type": "function"
    }
  ],
  "bytecode": "0x60806040523480156200001157600080fd5b5060405162000d7b38038062000d7b83398181016040528101906200003791906200029e565b600073ffffffffffffffffffffffffffffffffffffffff168373ffffffffffffffffffffffffffffffffffffffff1603620000a9576040517f08c379a0000000000000000000000000000000000000000000000000000000008152600401620000a0906200035b565b60405180910390fd5b600073ffffffffffffffffffffffffffffffffffffffff168273ffffffffffffffffffffffffffffffffffffffff16036200011b576040517f08c379a00000000000000000000000000000000000000000000000000000000081526004016200011290620003cd565b60405180910390fd5b6000811162000161576040517f08c379a000000000000000000000000000000000000000000000000000000000815260040162000158906200043f565b60405180910390fd5b826000806101000a81548173ffffffffffffffffffffffffffffffffffffffff021916908373ffffffffffffffffffffffffffffffffffffffff16021790555081600160006101000a81548173ffffffffffffffffffffffffffffffffffffffff021916908373ffffffffffffffffffffffffffffffffffffffff160217905550426002819055508060038190555050505062000461565b600080fd5b600073ffffffffffffffffffffffffffffffffffffffff82169050919050565b60006200022b82620001fe565b9050919050565b6200023d816200021e565b81146200024957600080fd5b50565b6000815190506200025d8162000232565b92915050565b6000819050919050565b620002788162000263565b81146200028457600080fd5b50565b60008151905062000298816200026d565b92915050565b600080600060608486031215620002ba57620002b9620001f9565b5b6000620002ca868287016200024c565b9350506020620002dd868287016200024c565b9250506040620002f08682870162000287565b9150509250925092565b600082825260208201905092915050565b7f496e76616c696420746f6b656e20616464726573730000000000000000000000600082015250565b600062000343601583620002fa565b915062000350826200030b565b602082019050919050565b60006020820190508181036000830152620003768162000334565b9050919050565b7f496e76616c69642062656e656669636961727920616464726573730000000000600082015250565b6000620003b5601b83620002fa565b9150620003c2826200037d565b602082019050919050565b60006020820190508181036000830152620003e881620003a6565b9050919050565b7f4475726174696f6e206d7573742062652067726561746572207468616e203000600082015250565b600062000427601f83620002fa565b91506200043482620003ef565b602082019050919050565b600060208201905081810360008301526200045a8162000418565b9050919050565b61090a80620004716000396000f3fe608060405234801561001057600080fd5b506004361061007d5760003560e01c8063961325211161005b57806396132521146100c8578063be9a6555146100e6578063c227cbd814610104578063fc0c546a146101255761007d565b80630fb5a6b41461008257806338af3eed146100a057806386d1a69f146100be575b600080fd5b61008a610143565b6040516100979190610490565b60405180910390f35b6100a8610149565b6040516100b591906104ec565b60405180910390f35b6100c661016f565b005b6100d061032a565b6040516100dd9190610490565b60405180910390f35b6100ee610330565b6040516100fb9190610490565b60405180910390f35b61010c610336565b60405161011c9493929190610507565b60405180910390f35b61012d61035b565b60405161013a91906105ab565b60405180910390f35b60035481565b600160009054906101000a900473ffffffffffffffffffffffffffffffffffffffff1681565b6002544210156101b4576040517f08c379a00000000000000000000000000000000000000000000000000000000081526004016101ab90610623565b60405180910390fd5b60006101be61037f565b90506000600454826101d09190610672565b905060008111610215576040517f08c379a000000000000000000000000000000000000000000000000000000000815260040161020c906106f2565b60405180910390fd5b80600460008282546102279190610712565b9250508190555060008054906101000a900473ffffffffffffffffffffffffffffffffffffffff1673ffffffffffffffffffffffffffffffffffffffff1663a9059cbb600160009054906101000a900473ffffffffffffffffffffffffffffffffffffffff16836040518363ffffffff1660e01b81526004016102ab929190610746565b6020604051808303816000875af11580156102ca573d6000803e3d6000fd5b505050506040513d601f19601f820116820180604052508101906102ee91906107ac565b507fa1598fb976f7dd9df63fd18699c54a5744a6a95364166bbd0d77a2f6c8438b1f8160405161031e9190610490565b60405180910390a15050565b60045481565b60025481565b60008060008060025460035460045461034d61037f565b935093509350935090919293565b60008054906101000a900473ffffffffffffffffffffffffffffffffffffffff1681565b60008060045460008054906101000a900473ffffffffffffffffffffffffffffffffffffffff1673ffffffffffffffffffffffffffffffffffffffff166370a08231306040518263ffffffff1660e01b81526004016103de91906104ec565b602060405180830381865afa1580156103fb573d6000803e3d6000fd5b505050506040513d601f19601f8201168201806040525081019061041f9190610805565b6104299190610712565b905060035460025461043b9190610712565b421061044a5780915050610474565b6003546002544261045b9190610672565b826104669190610832565b61047091906108a3565b9150505b90565b6000819050919050565b61048a81610477565b82525050565b60006020820190506104a56000830184610481565b92915050565b600073ffffffffffffffffffffffffffffffffffffffff82169050919050565b60006104d6826104ab565b9050919050565b6104e6816104cb565b82525050565b600060208201905061050160008301846104dd565b92915050565b600060808201905061051c6000830187610481565b6105296020830186610481565b6105366040830185610481565b6105436060830184610481565b95945050505050565b6000819050919050565b600061057161056c610567846104ab565b61054c565b6104ab565b9050919050565b600061058382610556565b9050919050565b600061059582610578565b9050919050565b6105a58161058a565b82525050565b60006020820190506105c0600083018461059c565b92915050565b600082825260208201905092915050565b7f56657374696e67206e6f74207374617274656400000000000000000000000000600082015250565b600061060d6013836105c6565b9150610618826105d7565b602082019050919050565b6000602082019050818103600083015261063c81610600565b9050919050565b7f4e487b7100000000000000000000000000000000000000000000000000000000600052601160045260246000fd5b600061067d82610477565b915061068883610477565b92508282039050818111156106a05761069f610643565b5b92915050565b7f4e6f20746f6b656e7320746f2072656c65617365000000000000000000000000600082015250565b60006106dc6014836105c6565b91506106e7826106a6565b602082019050919050565b6000602082019050818103600083015261070b816106cf565b9050919050565b600061071d82610477565b915061072883610477565b92508282019050808211156107405761073f610643565b5b92915050565b600060408201905061075b60008301856104dd565b6107686020830184610481565b9392505050565b600080fd5b60008115159050919050565b61078981610774565b811461079457600080fd5b50565b6000815190506107a681610780565b92915050565b6000602082840312156107c2576107c161076f565b5b60006107d084828501610797565b91505092915050565b6107e281610477565b81146107ed57600080fd5b50565b6000815190506107ff816107d9565b92915050565b60006020828403121561081b5761081a61076f565b5b6000610829848285016107f0565b91505092915050565b600061083d82610477565b915061084883610477565b925082820261085681610477565b9150828204841483151761086d5761086c610643565b5b5092915050565b7f4e487b7100000000000000000000000000000000000000000000000000000000600052601260045260246000fd5b60006108ae82610477565b91506108b983610477565b9250826108c9576108c8610874565b5b82820490509291505056fea2646970667358221220d4293297db3b0e35e3cd46de773f814ef2a0eadb7139f79623c281fc6bbb53b664736f6c63430008140033",
  "linkReferences": {},
  "deployedLinkReferences": {}
}