{
  "_format": "hh-sol-artifact-1",
  "contractName": "Airdrop",
  "sourceName": "contracts/ERC20Mock.sol",
  "abi": [
    {
      "inputs": [
        {
          "internalType": "address",
          "name": "tokenAddress",
          "type": "address"
        }
      ],
      "stateMutability": "nonpayable",
      "type": "constructor"
    },
    {
      "inputs": [
        {
          "internalType": "address[]",
          "name": "recipients",
          "type": "address[]"
        },
        {
          "internalType": "uint256",
          "name": "amount",
          "type": "uint256"
        }
      ],
      "name": "distributeTokens",
      "outputs": [],
      "stateMutability": "nonpayable",
      "type": "function"
    },
    {
      "inputs": [],
      "name": "owner",
      "outputs": [
        {
          "internalType": "address",
          "name": "",
          "type": "address"
        }
      ],
      "stateMutability": "view",
      "type": "function"
    },
    {
      "inputs": [],
      "name": "token",
      "outputs": [
        {
          "internalType": "contract IERC20",
          "name": "",
          "type": "address"
        }
      ],
      "stateMutability": "view",
      "type": "function"
    }
  ],
  "bytecode": "0x608060405234801561001057600080fd5b5060405161094e38038061094e8339818101604052810190610032919061011c565b806000806101000a81548173ffffffffffffffffffffffffffffffffffffffff021916908373ffffffffffffffffffffffffffffffffffffffff16021790555033600160006101000a81548173ffffffffffffffffffffffffffffffffffffffff021916908373ffffffffffffffffffffffffffffffffffffffff16021790555050610149565b600080fd5b600073ffffffffffffffffffffffffffffffffffffffff82169050919050565b60006100e9826100be565b9050919050565b6100f9816100de565b811461010457600080fd5b50565b600081519050610116816100f0565b92915050565b600060208284031215610132576101316100b9565b5b600061014084828501610107565b91505092915050565b6107f6806101586000396000f3fe608060405234801561001057600080fd5b50600436106100415760003560e01c8063256fa241146100465780638da5cb5b14610062578063fc0c546a14610080575b600080fd5b610060600480360381019061005b9190610494565b61009e565b005b61006a610249565b60405161007791906104ff565b60405180910390f35b61008861026f565b6040516100959190610579565b60405180910390f35b600160009054906101000a900473ffffffffffffffffffffffffffffffffffffffff1673ffffffffffffffffffffffffffffffffffffffff163373ffffffffffffffffffffffffffffffffffffffff161461012e576040517f08c379a0000000000000000000000000000000000000000000000000000000008152600401610125906105f1565b60405180910390fd5b60005b82518110156102445760008054906101000a900473ffffffffffffffffffffffffffffffffffffffff1673ffffffffffffffffffffffffffffffffffffffff1663a9059cbb84838151811061018957610188610611565b5b6020026020010151846040518363ffffffff1660e01b81526004016101af92919061064f565b6020604051808303816000875af11580156101ce573d6000803e3d6000fd5b505050506040513d601f19601f820116820180604052508101906101f291906106b0565b610231576040517f08c379a000000000000000000000000000000000000000000000000000000000815260040161022890610729565b60405180910390fd5b808061023c90610778565b915050610131565b505050565b600160009054906101000a900473ffffffffffffffffffffffffffffffffffffffff1681565b60008054906101000a900473ffffffffffffffffffffffffffffffffffffffff1681565b6000604051905090565b600080fd5b600080fd5b600080fd5b6000601f19601f8301169050919050565b7f4e487b7100000000000000000000000000000000000000000000000000000000600052604160045260246000fd5b6102f5826102ac565b810181811067ffffffffffffffff82111715610314576103136102bd565b5b80604052505050565b6000610327610293565b905061033382826102ec565b919050565b600067ffffffffffffffff821115610353576103526102bd565b5b602082029050602081019050919050565b600080fd5b600073ffffffffffffffffffffffffffffffffffffffff82169050919050565b600061039482610369565b9050919050565b6103a481610389565b81146103af57600080fd5b50565b6000813590506103c18161039b565b92915050565b60006103da6103d584610338565b61031d565b905080838252602082019050602084028301858111156103fd576103fc610364565b5b835b81811015610426578061041288826103b2565b8452602084019350506020810190506103ff565b5050509392505050565b600082601f830112610445576104446102a7565b5b81356104558482602086016103c7565b91505092915050565b6000819050919050565b6104718161045e565b811461047c57600080fd5b50565b60008135905061048e81610468565b92915050565b600080604083850312156104ab576104aa61029d565b5b600083013567ffffffffffffffff8111156104c9576104c86102a2565b5b6104d585828601610430565b92505060206104e68582860161047f565b9150509250929050565b6104f981610389565b82525050565b600060208201905061051460008301846104f0565b92915050565b6000819050919050565b600061053f61053a61053584610369565b61051a565b610369565b9050919050565b600061055182610524565b9050919050565b600061056382610546565b9050919050565b61057381610558565b82525050565b600060208201905061058e600083018461056a565b92915050565b600082825260208201905092915050565b7f4e6f7420746865206f776e657200000000000000000000000000000000000000600082015250565b60006105db600d83610594565b91506105e6826105a5565b602082019050919050565b6000602082019050818103600083015261060a816105ce565b9050919050565b7f4e487b7100000000000000000000000000000000000000000000000000000000600052603260045260246000fd5b6106498161045e565b82525050565b600060408201905061066460008301856104f0565b6106716020830184610640565b9392505050565b60008115159050919050565b61068d81610678565b811461069857600080fd5b50565b6000815190506106aa81610684565b92915050565b6000602082840312156106c6576106c561029d565b5b60006106d48482850161069b565b91505092915050565b7f5472616e73666572206661696c65640000000000000000000000000000000000600082015250565b6000610713600f83610594565b915061071e826106dd565b602082019050919050565b6000602082019050818103600083015261074281610706565b9050919050565b7f4e487b7100000000000000000000000000000000000000000000000000000000600052601160045260246000fd5b60006107838261045e565b91507fffffffffffffffffffffffffffffffffffffffffffffffffffffffffffffffff82036107b5576107b4610749565b5b60018201905091905056fea26469706673582212203d73e533d46390433937dbff6b2f844302a20cefd37c2e5173d58585ce5d707a64736f6c63430008140033",
  "linkReferences": {},
  "deployedLinkReferences": {}
}