{
  "_format": "hh-sol-artifact-1",
  "contractName": "MultiSigWallet",
  "sourceName": "contracts/contract.sol",
  "abi": [
    {
      "inputs": [
        {
          "internalType": "address[]",
          "name": "_owners",
          "type": "address[]"
        },
        {
          "internalType": "uint256",
          "name": "_requiredApprovals",
          "type": "uint256"
        }
      ],
      "stateMutability": "nonpayable",
      "type": "constructor"
    },
    {
      "anonymous": false,
      "inputs": [
        {
          "indexed": true,
          "internalType": "uint256",
          "name": "transactionId",
          "type": "uint256"
        },
        {
          "indexed": true,
          "internalType": "address",
          "name": "approver",
          "type": "address"
        }
      ],
      "name": "TransactionApproved",
      "type": "event"
    },
    {
      "anonymous": false,
      "inputs": [
        {
          "indexed": true,
          "internalType": "uint256",
          "name": "transactionId",
          "type": "uint256"
        },
        {
          "indexed": true,
          "internalType": "address",
          "name": "to",
          "type": "address"
        },
        {
          "indexed": false,
          "internalType": "uint256",
          "name": "amount",
          "type": "uint256"
        }
      ],
      "name": "TransactionExecuted",
      "type": "event"
    },
    {
      "anonymous": false,
      "inputs": [
        {
          "indexed": true,
          "internalType": "uint256",
          "name": "transactionId",
          "type": "uint256"
        },
        {
          "indexed": true,
          "internalType": "address",
          "name": "to",
          "type": "address"
        },
        {
          "indexed": false,
          "internalType": "uint256",
          "name": "amount",
          "type": "uint256"
        }
      ],
      "name": "TransactionProposed",
      "type": "event"
    },
    {
      "inputs": [
        {
          "internalType": "uint256",
          "name": "",
          "type": "uint256"
        },
        {
          "internalType": "address",
          "name": "",
          "type": "address"
        }
      ],
      "name": "approvals",
      "outputs": [
        {
          "internalType": "bool",
          "name": "",
          "type": "bool"
        }
      ],
      "stateMutability": "view",
      "type": "function"
    },
    {
      "inputs": [
        {
          "internalType": "uint256",
          "name": "index",
          "type": "uint256"
        }
      ],
      "name": "approveTransaction",
      "outputs": [],
      "stateMutability": "nonpayable",
      "type": "function"
    },
    {
      "inputs": [
        {
          "internalType": "uint256",
          "name": "index",
          "type": "uint256"
        }
      ],
      "name": "executeTransaction",
      "outputs": [],
      "stateMutability": "nonpayable",
      "type": "function"
    },
    {
      "inputs": [
        {
          "internalType": "address",
          "name": "",
          "type": "address"
        }
      ],
      "name": "isOwner",
      "outputs": [
        {
          "internalType": "bool",
          "name": "",
          "type": "bool"
        }
      ],
      "stateMutability": "view",
      "type": "function"
    },
    {
      "inputs": [
        {
          "internalType": "uint256",
          "name": "",
          "type": "uint256"
        }
      ],
      "name": "owners",
      "outputs": [
        {
          "internalType": "address",
          "name": "",
          "type": "address"
        }
      ],
      "stateMutability": "view",
      "type": "function"
    },
    {
      "inputs": [
        {
          "internalType": "address",
          "name": "_to",
          "type": "address"
        },
        {
          "internalType": "uint256",
          "name": "_amount",
          "type": "uint256"
        }
      ],
      "name": "proposeTransaction",
      "outputs": [],
      "stateMutability": "nonpayable",
      "type": "function"
    },
    {
      "inputs": [],
      "name": "requiredApprovals",
      "outputs": [
        {
          "internalType": "uint256",
          "name": "",
          "type": "uint256"
        }
      ],
      "stateMutability": "view",
      "type": "function"
    },
    {
      "inputs": [],
      "name": "transactionCount",
      "outputs": [
        {
          "internalType": "uint256",
          "name": "",
          "type": "uint256"
        }
      ],
      "stateMutability": "view",
      "type": "function"
    },
    {
      "inputs": [
        {
          "internalType": "uint256",
          "name": "",
          "type": "uint256"
        }
      ],
      "name": "transactions",
      "outputs": [
        {
          "internalType": "address",
          "name": "to",
          "type": "address"
        },
        {
          "internalType": "uint256",
          "name": "amount",
          "type": "uint256"
        },
        {
          "internalType": "bool",
          "name": "executed",
          "type": "bool"
        }
      ],
      "stateMutability": "view",
      "type": "function"
    },
    {
      "stateMutability": "payable",
      "type": "receive"
    }
  ],
  "bytecode": "0x60806040523480156200001157600080fd5b5060405162001acc38038062001acc83398181016040528101906200003791906200055f565b60008251116200007e576040517f08c379a0000000000000000000000000000000000000000000000000000000008152600401620000759062000626565b60405180910390fd5b60008111801562000090575081518111155b620000d2576040517f08c379a0000000000000000000000000000000000000000000000000000000008152600401620000c99062000698565b60405180910390fd5b60005b82518110156200032657600073ffffffffffffffffffffffffffffffffffffffff168382815181106200010d576200010c620006ba565b5b602002602001015173ffffffffffffffffffffffffffffffffffffffff16036200016e576040517f08c379a0000000000000000000000000000000000000000000000000000000008152600401620001659062000739565b60405180910390fd5b60026000848381518110620001885762000187620006ba565b5b602002602001015173ffffffffffffffffffffffffffffffffffffffff1673ffffffffffffffffffffffffffffffffffffffff16815260200190815260200160002060009054906101000a900460ff16156200021b576040517f08c379a00000000000000000000000000000000000000000000000000000000081526004016200021290620007ab565b60405180910390fd5b600160026000858481518110620002375762000236620006ba565b5b602002602001015173ffffffffffffffffffffffffffffffffffffffff1673ffffffffffffffffffffffffffffffffffffffff16815260200190815260200160002060006101000a81548160ff0219169083151502179055506000838281518110620002a857620002a7620006ba565b5b60200260200101519080600181540180825580915050600190039060005260206000200160009091909190916101000a81548173ffffffffffffffffffffffffffffffffffffffff021916908373ffffffffffffffffffffffffffffffffffffffff16021790555080806200031d90620007fc565b915050620000d5565b5080600181905550505062000849565b6000604051905090565b600080fd5b600080fd5b600080fd5b6000601f19601f8301169050919050565b7f4e487b7100000000000000000000000000000000000000000000000000000000600052604160045260246000fd5b6200039a826200034f565b810181811067ffffffffffffffff82111715620003bc57620003bb62000360565b5b80604052505050565b6000620003d162000336565b9050620003df82826200038f565b919050565b600067ffffffffffffffff82111562000402576200040162000360565b5b602082029050602081019050919050565b600080fd5b600073ffffffffffffffffffffffffffffffffffffffff82169050919050565b6000620004458262000418565b9050919050565b620004578162000438565b81146200046357600080fd5b50565b60008151905062000477816200044c565b92915050565b6000620004946200048e84620003e4565b620003c5565b90508083825260208201905060208402830185811115620004ba57620004b962000413565b5b835b81811015620004e75780620004d2888262000466565b845260208401935050602081019050620004bc565b5050509392505050565b600082601f8301126200050957620005086200034a565b5b81516200051b8482602086016200047d565b91505092915050565b6000819050919050565b620005398162000524565b81146200054557600080fd5b50565b60008151905062000559816200052e565b92915050565b6000806040838503121562000579576200057862000340565b5b600083015167ffffffffffffffff8111156200059a576200059962000345565b5b620005a885828601620004f1565b9250506020620005bb8582860162000548565b9150509250929050565b600082825260208201905092915050565b7f4f776e6572732072657175697265640000000000000000000000000000000000600082015250565b60006200060e600f83620005c5565b91506200061b82620005d6565b602082019050919050565b600060208201905081810360008301526200064181620005ff565b9050919050565b7f496e76616c696420726571756972656420617070726f76616c73000000000000600082015250565b600062000680601a83620005c5565b91506200068d8262000648565b602082019050919050565b60006020820190508181036000830152620006b38162000671565b9050919050565b7f4e487b7100000000000000000000000000000000000000000000000000000000600052603260045260246000fd5b7f496e76616c6964206f776e657220616464726573730000000000000000000000600082015250565b600062000721601583620005c5565b91506200072e82620006e9565b602082019050919050565b60006020820190508181036000830152620007548162000712565b9050919050565b7f4f776e657220616c726561647920616464656400000000000000000000000000600082015250565b600062000793601383620005c5565b9150620007a0826200075b565b602082019050919050565b60006020820190508181036000830152620007c68162000784565b9050919050565b7f4e487b7100000000000000000000000000000000000000000000000000000000600052601160045260246000fd5b6000620008098262000524565b91507fffffffffffffffffffffffffffffffffffffffffffffffffffffffffffffffff82036200083e576200083d620007cd565b5b600182019050919050565b61127380620008596000396000f3fe60806040526004361061008a5760003560e01c80639ace38c2116100595780639ace38c214610164578063ab2850da146101a3578063b77bf600146101e0578063ee22610b1461020b578063f19a66821461023457610091565b8063025e7c2714610096578063242232d1146100d35780632f54bf6e146100fc57806399c1aadc1461013957610091565b3661009157005b600080fd5b3480156100a257600080fd5b506100bd60048036038101906100b89190610bf9565b61025d565b6040516100ca9190610c67565b60405180910390f35b3480156100df57600080fd5b506100fa60048036038101906100f59190610bf9565b61029c565b005b34801561010857600080fd5b50610123600480360381019061011e9190610cae565b6104bd565b6040516101309190610cf6565b60405180910390f35b34801561014557600080fd5b5061014e6104dd565b60405161015b9190610d20565b60405180910390f35b34801561017057600080fd5b5061018b60048036038101906101869190610bf9565b6104e3565b60405161019a93929190610d3b565b60405180910390f35b3480156101af57600080fd5b506101ca60048036038101906101c59190610d72565b61054a565b6040516101d79190610cf6565b60405180910390f35b3480156101ec57600080fd5b506101f5610579565b6040516102029190610d20565b60405180910390f35b34801561021757600080fd5b50610232600480360381019061022d9190610bf9565b61057f565b005b34801561024057600080fd5b5061025b60048036038101906102569190610db2565b610932565b005b6000818154811061026d57600080fd5b906000526020600020016000915054906101000a900473ffffffffffffffffffffffffffffffffffffffff1681565b600260003373ffffffffffffffffffffffffffffffffffffffff1673ffffffffffffffffffffffffffffffffffffffff16815260200190815260200160002060009054906101000a900460ff16610328576040517f08c379a000000000000000000000000000000000000000000000000000000000815260040161031f90610e4f565b60405180910390fd5b600580549050811061036f576040517f08c379a000000000000000000000000000000000000000000000000000000000815260040161036690610ebb565b60405180910390fd5b6003600082815260200190815260200160002060003373ffffffffffffffffffffffffffffffffffffffff1673ffffffffffffffffffffffffffffffffffffffff16815260200190815260200160002060009054906101000a900460ff161561040d576040517f08c379a000000000000000000000000000000000000000000000000000000000815260040161040490610f27565b60405180910390fd5b60016003600083815260200190815260200160002060003373ffffffffffffffffffffffffffffffffffffffff1673ffffffffffffffffffffffffffffffffffffffff16815260200190815260200160002060006101000a81548160ff0219169083151502179055503373ffffffffffffffffffffffffffffffffffffffff16817f924813d717e221b5f46dcd8a56da1679e4612584ab3237d55e5faabf6f6a307960405160405180910390a350565b60026020528060005260406000206000915054906101000a900460ff1681565b60015481565b600581815481106104f357600080fd5b90600052602060002090600302016000915090508060000160009054906101000a900473ffffffffffffffffffffffffffffffffffffffff16908060010154908060020160009054906101000a900460ff16905083565b60036020528160005260406000206020528060005260406000206000915091509054906101000a900460ff1681565b60045481565b600260003373ffffffffffffffffffffffffffffffffffffffff1673ffffffffffffffffffffffffffffffffffffffff16815260200190815260200160002060009054906101000a900460ff1661060b576040517f08c379a000000000000000000000000000000000000000000000000000000000815260040161060290610e4f565b60405180910390fd5b6005805490508110610652576040517f08c379a000000000000000000000000000000000000000000000000000000000815260040161064990610ebb565b60405180910390fd5b60006005828154811061066857610667610f47565b5b906000526020600020906003020190508060020160009054906101000a900460ff16156106ca576040517f08c379a00000000000000000000000000000000000000000000000000000000081526004016106c190610fc2565b60405180910390fd5b6000805b60008054905081101561079d5760036000858152602001908152602001600020600080838154811061070357610702610f47565b5b9060005260206000200160009054906101000a900473ffffffffffffffffffffffffffffffffffffffff1673ffffffffffffffffffffffffffffffffffffffff1673ffffffffffffffffffffffffffffffffffffffff16815260200190815260200160002060009054906101000a900460ff161561078a57818061078690611011565b9250505b808061079590611011565b9150506106ce565b506001548110156107e3576040517f08c379a00000000000000000000000000000000000000000000000000000000081526004016107da906110a5565b60405180910390fd5b816001015447101561082a576040517f08c379a000000000000000000000000000000000000000000000000000000000815260040161082190611111565b60405180910390fd5b60018260020160006101000a81548160ff0219169083151502179055508160000160009054906101000a900473ffffffffffffffffffffffffffffffffffffffff1673ffffffffffffffffffffffffffffffffffffffff166108fc83600101549081150290604051600060405180830381858888f193505050501580156108b5573d6000803e3d6000fd5b508160000160009054906101000a900473ffffffffffffffffffffffffffffffffffffffff1673ffffffffffffffffffffffffffffffffffffffff16837fda19024f6708ce28e75d9c0ec389fb05a8e5cc9dfe520f61239c10d51a11e59c84600101546040516109259190610d20565b60405180910390a3505050565b600260003373ffffffffffffffffffffffffffffffffffffffff1673ffffffffffffffffffffffffffffffffffffffff16815260200190815260200160002060009054906101000a900460ff166109be576040517f08c379a00000000000000000000000000000000000000000000000000000000081526004016109b590610e4f565b60405180910390fd5b600073ffffffffffffffffffffffffffffffffffffffff168273ffffffffffffffffffffffffffffffffffffffff1603610a2d576040517f08c379a0000000000000000000000000000000000000000000000000000000008152600401610a249061117d565b60405180910390fd5b60008111610a70576040517f08c379a0000000000000000000000000000000000000000000000000000000008152600401610a67906111e9565b60405180910390fd5b600560405180606001604052808473ffffffffffffffffffffffffffffffffffffffff16815260200183815260200160001515815250908060018154018082558091505060019003906000526020600020906003020160009091909190915060008201518160000160006101000a81548173ffffffffffffffffffffffffffffffffffffffff021916908373ffffffffffffffffffffffffffffffffffffffff1602179055506020820151816001015560408201518160020160006101000a81548160ff02191690831515021790555050508173ffffffffffffffffffffffffffffffffffffffff166001600580549050610b6b9190611209565b7f34c1492f2b30aac2446b0b2de2e32501ff4742f7196db5ed9e0ddd6b7d7b25cf83604051610b9a9190610d20565b60405180910390a360046000815480929190610bb590611011565b91905055505050565b600080fd5b6000819050919050565b610bd681610bc3565b8114610be157600080fd5b50565b600081359050610bf381610bcd565b92915050565b600060208284031215610c0f57610c0e610bbe565b5b6000610c1d84828501610be4565b91505092915050565b600073ffffffffffffffffffffffffffffffffffffffff82169050919050565b6000610c5182610c26565b9050919050565b610c6181610c46565b82525050565b6000602082019050610c7c6000830184610c58565b92915050565b610c8b81610c46565b8114610c9657600080fd5b50565b600081359050610ca881610c82565b92915050565b600060208284031215610cc457610cc3610bbe565b5b6000610cd284828501610c99565b91505092915050565b60008115159050919050565b610cf081610cdb565b82525050565b6000602082019050610d0b6000830184610ce7565b92915050565b610d1a81610bc3565b82525050565b6000602082019050610d356000830184610d11565b92915050565b6000606082019050610d506000830186610c58565b610d5d6020830185610d11565b610d6a6040830184610ce7565b949350505050565b60008060408385031215610d8957610d88610bbe565b5b6000610d9785828601610be4565b9250506020610da885828601610c99565b9150509250929050565b60008060408385031215610dc957610dc8610bbe565b5b6000610dd785828601610c99565b9250506020610de885828601610be4565b9150509250929050565b600082825260208201905092915050565b7f4e6f7420616e206f776e65720000000000000000000000000000000000000000600082015250565b6000610e39600c83610df2565b9150610e4482610e03565b602082019050919050565b60006020820190508181036000830152610e6881610e2c565b9050919050565b7f496e76616c6964207472616e73616374696f6e20696e64657800000000000000600082015250565b6000610ea5601983610df2565b9150610eb082610e6f565b602082019050919050565b60006020820190508181036000830152610ed481610e98565b9050919050565b7f416c726561647920617070726f76656400000000000000000000000000000000600082015250565b6000610f11601083610df2565b9150610f1c82610edb565b602082019050919050565b60006020820190508181036000830152610f4081610f04565b9050919050565b7f4e487b7100000000000000000000000000000000000000000000000000000000600052603260045260246000fd5b7f5472616e73616374696f6e20616c726561647920657865637574656400000000600082015250565b6000610fac601c83610df2565b9150610fb782610f76565b602082019050919050565b60006020820190508181036000830152610fdb81610f9f565b9050919050565b7f4e487b7100000000000000000000000000000000000000000000000000000000600052601160045260246000fd5b600061101c82610bc3565b91507fffffffffffffffffffffffffffffffffffffffffffffffffffffffffffffffff820361104e5761104d610fe2565b5b600182019050919050565b7f4e6f7420656e6f75676820617070726f76616c73000000000000000000000000600082015250565b600061108f601483610df2565b915061109a82611059565b602082019050919050565b600060208201905081810360008301526110be81611082565b9050919050565b7f496e73756666696369656e7420636f6e74726163742062616c616e6365000000600082015250565b60006110fb601d83610df2565b9150611106826110c5565b602082019050919050565b6000602082019050818103600083015261112a816110ee565b9050919050565b7f496e76616c696420726563697069656e74206164647265737300000000000000600082015250565b6000611167601983610df2565b915061117282611131565b602082019050919050565b600060208201905081810360008301526111968161115a565b9050919050565b7f416d6f756e74206d7573742062652067726561746572207468616e207a65726f600082015250565b60006111d3602083610df2565b91506111de8261119d565b602082019050919050565b60006020820190508181036000830152611202816111c6565b9050919050565b600061121482610bc3565b915061121f83610bc3565b925082820390508181111561123757611236610fe2565b5b9291505056fea26469706673582212202d0fca99b93537918b74976029a4b1092ae6a4e79a7f0df0c28a47b3b99aa89c64736f6c63430008140033",
  "linkReferences": {},
  "deployedLinkReferences": {}
}