{
  "_format": "hh-sol-artifact-1",
  "contractName": "MultiSigWallet",
  "sourceName": "contracts/contract.sol",
  "abi": [
    {
      "inputs": [
        {
          "internalType": "address[]",
          "name": "_owners",
          "type": "address[]"
        },
        {
          "internalType": "uint256",
          "name": "_requiredApprovals",
          "type": "uint256"
        }
      ],
      "stateMutability": "nonpayable",
      "type": "constructor"
    },
    {
      "inputs": [
        {
          "internalType": "uint256",
          "name": "",
          "type": "uint256"
        },
        {
          "internalType": "address",
          "name": "",
          "type": "address"
        }
      ],
      "name": "approvals",
      "outputs": [
        {
          "internalType": "bool",
          "name": "",
          "type": "bool"
        }
      ],
      "stateMutability": "view",
      "type": "function"
    },
    {
      "inputs": [
        {
          "internalType": "uint256",
          "name": "index",
          "type": "uint256"
        }
      ],
      "name": "approveTransaction",
      "outputs": [],
      "stateMutability": "nonpayable",
      "type": "function"
    },
    {
      "inputs": [
        {
          "internalType": "uint256",
          "name": "index",
          "type": "uint256"
        }
      ],
      "name": "executeTransaction",
      "outputs": [],
      "stateMutability": "nonpayable",
      "type": "function"
    },
    {
      "inputs": [
        {
          "internalType": "address",
          "name": "",
          "type": "address"
        }
      ],
      "name": "isOwner",
      "outputs": [
        {
          "internalType": "bool",
          "name": "",
          "type": "bool"
        }
      ],
      "stateMutability": "view",
      "type": "function"
    },
    {
      "inputs": [
        {
          "internalType": "uint256",
          "name": "",
          "type": "uint256"
        }
      ],
      "name": "owners",
      "outputs": [
        {
          "internalType": "address",
          "name": "",
          "type": "address"
        }
      ],
      "stateMutability": "view",
      "type": "function"
    },
    {
      "inputs": [
        {
          "internalType": "address",
          "name": "_to",
          "type": "address"
        },
        {
          "internalType": "uint256",
          "name": "_amount",
          "type": "uint256"
        }
      ],
      "name": "proposeTransaction",
      "outputs": [],
      "stateMutability": "nonpayable",
      "type": "function"
    },
    {
      "inputs": [],
      "name": "requiredApprovals",
      "outputs": [
        {
          "internalType": "uint256",
          "name": "",
          "type": "uint256"
        }
      ],
      "stateMutability": "view",
      "type": "function"
    },
    {
      "inputs": [],
      "name": "transactionCount",
      "outputs": [
        {
          "internalType": "uint256",
          "name": "",
          "type": "uint256"
        }
      ],
      "stateMutability": "view",
      "type": "function"
    },
    {
      "inputs": [
        {
          "internalType": "uint256",
          "name": "",
          "type": "uint256"
        }
      ],
      "name": "transactions",
      "outputs": [
        {
          "internalType": "address",
          "name": "to",
          "type": "address"
        },
        {
          "internalType": "uint256",
          "name": "amount",
          "type": "uint256"
        },
        {
          "internalType": "bool",
          "name": "executed",
          "type": "bool"
        }
      ],
      "stateMutability": "view",
      "type": "function"
    },
    {
      "stateMutability": "payable",
      "type": "receive"
    }
  ],
  "bytecode": "0x60806040523480156200001157600080fd5b506040516200140a3803806200140a833981810160405281019062000037919062000416565b80825110156200007e576040517f08c379a00000000000000000000000000000000000000000000000000000000081526004016200007590620004dd565b60405180910390fd5b60005b82518110156200011657600160026000858481518110620000a757620000a6620004ff565b5b602002602001015173ffffffffffffffffffffffffffffffffffffffff1673ffffffffffffffffffffffffffffffffffffffff16815260200190815260200160002060006101000a81548160ff02191690831515021790555080806200010d906200055d565b91505062000081565b5081600090805190602001906200012f9291906200013f565b50806001819055505050620005aa565b828054828255906000526020600020908101928215620001bb579160200282015b82811115620001ba5782518260006101000a81548173ffffffffffffffffffffffffffffffffffffffff021916908373ffffffffffffffffffffffffffffffffffffffff1602179055509160200191906001019062000160565b5b509050620001ca9190620001ce565b5090565b5b80821115620001e9576000816000905550600101620001cf565b5090565b6000604051905090565b600080fd5b600080fd5b600080fd5b6000601f19601f8301169050919050565b7f4e487b7100000000000000000000000000000000000000000000000000000000600052604160045260246000fd5b620002518262000206565b810181811067ffffffffffffffff8211171562000273576200027262000217565b5b80604052505050565b600062000288620001ed565b905062000296828262000246565b919050565b600067ffffffffffffffff821115620002b957620002b862000217565b5b602082029050602081019050919050565b600080fd5b600073ffffffffffffffffffffffffffffffffffffffff82169050919050565b6000620002fc82620002cf565b9050919050565b6200030e81620002ef565b81146200031a57600080fd5b50565b6000815190506200032e8162000303565b92915050565b60006200034b62000345846200029b565b6200027c565b90508083825260208201905060208402830185811115620003715762000370620002ca565b5b835b818110156200039e57806200038988826200031d565b84526020840193505060208101905062000373565b5050509392505050565b600082601f830112620003c057620003bf62000201565b5b8151620003d284826020860162000334565b91505092915050565b6000819050919050565b620003f081620003db565b8114620003fc57600080fd5b50565b6000815190506200041081620003e5565b92915050565b6000806040838503121562000430576200042f620001f7565b5b600083015167ffffffffffffffff811115620004515762000450620001fc565b5b6200045f85828601620003a8565b92505060206200047285828601620003ff565b9150509250929050565b600082825260208201905092915050565b7f496e76616c696420736574757000000000000000000000000000000000000000600082015250565b6000620004c5600d836200047c565b9150620004d2826200048d565b602082019050919050565b60006020820190508181036000830152620004f881620004b6565b9050919050565b7f4e487b7100000000000000000000000000000000000000000000000000000000600052603260045260246000fd5b7f4e487b7100000000000000000000000000000000000000000000000000000000600052601160045260246000fd5b60006200056a82620003db565b91507fffffffffffffffffffffffffffffffffffffffffffffffffffffffffffffffff82036200059f576200059e6200052e565b5b600182019050919050565b610e5080620005ba6000396000f3fe60806040526004361061008a5760003560e01c80639ace38c2116100595780639ace38c214610164578063ab2850da146101a3578063b77bf600146101e0578063ee22610b1461020b578063f19a66821461023457610091565b8063025e7c2714610096578063242232d1146100d35780632f54bf6e146100fc57806399c1aadc1461013957610091565b3661009157005b600080fd5b3480156100a257600080fd5b506100bd60048036038101906100b891906109ba565b61025d565b6040516100ca9190610a28565b60405180910390f35b3480156100df57600080fd5b506100fa60048036038101906100f591906109ba565b61029c565b005b34801561010857600080fd5b50610123600480360381019061011e9190610a6f565b610432565b6040516101309190610ab7565b60405180910390f35b34801561014557600080fd5b5061014e610452565b60405161015b9190610ae1565b60405180910390f35b34801561017057600080fd5b5061018b600480360381019061018691906109ba565b610458565b60405161019a93929190610afc565b60405180910390f35b3480156101af57600080fd5b506101ca60048036038101906101c59190610b33565b6104bf565b6040516101d79190610ab7565b60405180910390f35b3480156101ec57600080fd5b506101f56104ee565b6040516102029190610ae1565b60405180910390f35b34801561021757600080fd5b50610232600480360381019061022d91906109ba565b6104f4565b005b34801561024057600080fd5b5061025b60048036038101906102569190610b73565b610805565b005b6000818154811061026d57600080fd5b906000526020600020016000915054906101000a900473ffffffffffffffffffffffffffffffffffffffff1681565b600260003373ffffffffffffffffffffffffffffffffffffffff1673ffffffffffffffffffffffffffffffffffffffff16815260200190815260200160002060009054906101000a900460ff16610328576040517f08c379a000000000000000000000000000000000000000000000000000000000815260040161031f90610c10565b60405180910390fd5b6003600082815260200190815260200160002060003373ffffffffffffffffffffffffffffffffffffffff1673ffffffffffffffffffffffffffffffffffffffff16815260200190815260200160002060009054906101000a900460ff16156103c6576040517f08c379a00000000000000000000000000000000000000000000000000000000081526004016103bd90610c7c565b60405180910390fd5b60016003600083815260200190815260200160002060003373ffffffffffffffffffffffffffffffffffffffff1673ffffffffffffffffffffffffffffffffffffffff16815260200190815260200160002060006101000a81548160ff02191690831515021790555050565b60026020528060005260406000206000915054906101000a900460ff1681565b60015481565b6005818154811061046857600080fd5b90600052602060002090600302016000915090508060000160009054906101000a900473ffffffffffffffffffffffffffffffffffffffff16908060010154908060020160009054906101000a900460ff16905083565b60036020528160005260406000206020528060005260406000206000915091509054906101000a900460ff1681565b60045481565b600260003373ffffffffffffffffffffffffffffffffffffffff1673ffffffffffffffffffffffffffffffffffffffff16815260200190815260200160002060009054906101000a900460ff16610580576040517f08c379a000000000000000000000000000000000000000000000000000000000815260040161057790610c10565b60405180910390fd5b600015156005828154811061059857610597610c9c565b5b906000526020600020906003020160020160009054906101000a900460ff161515146105f9576040517f08c379a00000000000000000000000000000000000000000000000000000000081526004016105f090610d17565b60405180910390fd5b6000805b6000805490508110156106cc5760036000848152602001908152602001600020600080838154811061063257610631610c9c565b5b9060005260206000200160009054906101000a900473ffffffffffffffffffffffffffffffffffffffff1673ffffffffffffffffffffffffffffffffffffffff1673ffffffffffffffffffffffffffffffffffffffff16815260200190815260200160002060009054906101000a900460ff16156106b95781806106b590610d66565b9250505b80806106c490610d66565b9150506105fd565b50600154811015610712576040517f08c379a000000000000000000000000000000000000000000000000000000000815260040161070990610dfa565b60405180910390fd5b60016005838154811061072857610727610c9c565b5b906000526020600020906003020160020160006101000a81548160ff0219169083151502179055506005828154811061076457610763610c9c565b5b906000526020600020906003020160000160009054906101000a900473ffffffffffffffffffffffffffffffffffffffff1673ffffffffffffffffffffffffffffffffffffffff166108fc600584815481106107c3576107c2610c9c565b5b9060005260206000209060030201600101549081150290604051600060405180830381858888f19350505050158015610800573d6000803e3d6000fd5b505050565b600260003373ffffffffffffffffffffffffffffffffffffffff1673ffffffffffffffffffffffffffffffffffffffff16815260200190815260200160002060009054906101000a900460ff16610891576040517f08c379a000000000000000000000000000000000000000000000000000000000815260040161088890610c10565b60405180910390fd5b600560405180606001604052808473ffffffffffffffffffffffffffffffffffffffff16815260200183815260200160001515815250908060018154018082558091505060019003906000526020600020906003020160009091909190915060008201518160000160006101000a81548173ffffffffffffffffffffffffffffffffffffffff021916908373ffffffffffffffffffffffffffffffffffffffff1602179055506020820151816001015560408201518160020160006101000a81548160ff02191690831515021790555050506004600081548092919061097690610d66565b91905055505050565b600080fd5b6000819050919050565b61099781610984565b81146109a257600080fd5b50565b6000813590506109b48161098e565b92915050565b6000602082840312156109d0576109cf61097f565b5b60006109de848285016109a5565b91505092915050565b600073ffffffffffffffffffffffffffffffffffffffff82169050919050565b6000610a12826109e7565b9050919050565b610a2281610a07565b82525050565b6000602082019050610a3d6000830184610a19565b92915050565b610a4c81610a07565b8114610a5757600080fd5b50565b600081359050610a6981610a43565b92915050565b600060208284031215610a8557610a8461097f565b5b6000610a9384828501610a5a565b91505092915050565b60008115159050919050565b610ab181610a9c565b82525050565b6000602082019050610acc6000830184610aa8565b92915050565b610adb81610984565b82525050565b6000602082019050610af66000830184610ad2565b92915050565b6000606082019050610b116000830186610a19565b610b1e6020830185610ad2565b610b2b6040830184610aa8565b949350505050565b60008060408385031215610b4a57610b4961097f565b5b6000610b58858286016109a5565b9250506020610b6985828601610a5a565b9150509250929050565b60008060408385031215610b8a57610b8961097f565b5b6000610b9885828601610a5a565b9250506020610ba9858286016109a5565b9150509250929050565b600082825260208201905092915050565b7f4e6f7420616e206f776e65720000000000000000000000000000000000000000600082015250565b6000610bfa600c83610bb3565b9150610c0582610bc4565b602082019050919050565b60006020820190508181036000830152610c2981610bed565b9050919050565b7f416c726561647920617070726f76656400000000000000000000000000000000600082015250565b6000610c66601083610bb3565b9150610c7182610c30565b602082019050919050565b60006020820190508181036000830152610c9581610c59565b9050919050565b7f4e487b7100000000000000000000000000000000000000000000000000000000600052603260045260246000fd5b7f416c726561647920657865637574656400000000000000000000000000000000600082015250565b6000610d01601083610bb3565b9150610d0c82610ccb565b602082019050919050565b60006020820190508181036000830152610d3081610cf4565b9050919050565b7f4e487b7100000000000000000000000000000000000000000000000000000000600052601160045260246000fd5b6000610d7182610984565b91507fffffffffffffffffffffffffffffffffffffffffffffffffffffffffffffffff8203610da357610da2610d37565b5b600182019050919050565b7f4e6f7420656e6f75676820617070726f76616c73000000000000000000000000600082015250565b6000610de4601483610bb3565b9150610def82610dae565b602082019050919050565b60006020820190508181036000830152610e1381610dd7565b905091905056fea264697066735822122075d37196966e8f25c9afe79360ef51cfa7fdc8bd58b4bac8b80dbf80ade2faeb64736f6c63430008110033",
  "linkReferences": {},
  "deployedLinkReferences": {}
}