{
  "_format": "hh-sol-artifact-1",
  "contractName": "Crowdfunding",
  "sourceName": "contracts/crowdFunding.sol",
  "abi": [
    {
      "inputs": [
        {
          "internalType": "uint256",
          "name": "_goal",
          "type": "uint256"
        },
        {
          "internalType": "uint256",
          "name": "_duration",
          "type": "uint256"
        }
      ],
      "stateMutability": "nonpayable",
      "type": "constructor"
    },
    {
      "anonymous": false,
      "inputs": [
        {
          "indexed": true,
          "internalType": "address",
          "name": "contributor",
          "type": "address"
        },
        {
          "indexed": false,
          "internalType": "uint256",
          "name": "amount",
          "type": "uint256"
        }
      ],
      "name": "Funded",
      "type": "event"
    },
    {
      "anonymous": false,
      "inputs": [
        {
          "indexed": false,
          "internalType": "address",
          "name": "owner",
          "type": "address"
        },
        {
          "indexed": false,
          "internalType": "uint256",
          "name": "amount",
          "type": "uint256"
        }
      ],
      "name": "Withdrawn",
      "type": "event"
    },
    {
      "inputs": [],
      "name": "contribute",
      "outputs": [],
      "stateMutability": "payable",
      "type": "function"
    },
    {
      "inputs": [
        {
          "internalType": "address",
          "name": "",
          "type": "address"
        }
      ],
      "name": "contributions",
      "outputs": [
        {
          "internalType": "uint256",
          "name": "",
          "type": "uint256"
        }
      ],
      "stateMutability": "view",
      "type": "function"
    },
    {
      "inputs": [],
      "name": "deadline",
      "outputs": [
        {
          "internalType": "uint256",
          "name": "",
          "type": "uint256"
        }
      ],
      "stateMutability": "view",
      "type": "function"
    },
    {
      "inputs": [],
      "name": "goal",
      "outputs": [
        {
          "internalType": "uint256",
          "name": "",
          "type": "uint256"
        }
      ],
      "stateMutability": "view",
      "type": "function"
    },
    {
      "inputs": [],
      "name": "owner",
      "outputs": [
        {
          "internalType": "address",
          "name": "",
          "type": "address"
        }
      ],
      "stateMutability": "view",
      "type": "function"
    },
    {
      "inputs": [],
      "name": "refund",
      "outputs": [],
      "stateMutability": "nonpayable",
      "type": "function"
    },
    {
      "inputs": [],
      "name": "totalFunds",
      "outputs": [
        {
          "internalType": "uint256",
          "name": "",
          "type": "uint256"
        }
      ],
      "stateMutability": "view",
      "type": "function"
    },
    {
      "inputs": [],
      "name": "withdrawFunds",
      "outputs": [],
      "stateMutability": "nonpayable",
      "type": "function"
    },
    {
      "stateMutability": "payable",
      "type": "receive"
    }
  ],
  "bytecode": "0x60806040523480156200001157600080fd5b5060405162000df738038062000df78339818101604052810190620000379190620000da565b336000806101000a81548173ffffffffffffffffffffffffffffffffffffffff021916908373ffffffffffffffffffffffffffffffffffffffff1602179055508160018190555080426200008c919062000150565b60028190555050506200018b565b600080fd5b6000819050919050565b620000b4816200009f565b8114620000c057600080fd5b50565b600081519050620000d481620000a9565b92915050565b60008060408385031215620000f457620000f36200009a565b5b60006200010485828601620000c3565b92505060206200011785828601620000c3565b9150509250929050565b7f4e487b7100000000000000000000000000000000000000000000000000000000600052601160045260246000fd5b60006200015d826200009f565b91506200016a836200009f565b925082820190508082111562000185576200018462000121565b5b92915050565b610c5c806200019b6000396000f3fe60806040526004361061007f5760003560e01c8063590e1ae31161004e578063590e1ae31461013d5780638da5cb5b14610154578063968ed6001461017f578063d7bb99ba146101aa5761008e565b806324600fc31461009357806329dcb0cf146100aa57806340193883146100d557806342e94c90146101005761008e565b3661008e5761008c6101b4565b005b600080fd5b34801561009f57600080fd5b506100a86102fa565b005b3480156100b657600080fd5b506100bf6104da565b6040516100cc91906106fa565b60405180910390f35b3480156100e157600080fd5b506100ea6104e0565b6040516100f791906106fa565b60405180910390f35b34801561010c57600080fd5b5061012760048036038101906101229190610778565b6104e6565b60405161013491906106fa565b60405180910390f35b34801561014957600080fd5b506101526104fe565b005b34801561016057600080fd5b506101696106b7565b60405161017691906107b4565b60405180910390f35b34801561018b57600080fd5b506101946106db565b6040516101a191906106fa565b60405180910390f35b6101b26101b4565b005b60025442106101f8576040517f08c379a00000000000000000000000000000000000000000000000000000000081526004016101ef9061082c565b60405180910390fd5b6000341161023b576040517f08c379a0000000000000000000000000000000000000000000000000000000008152600401610232906108be565b60405180910390fd5b34600460003373ffffffffffffffffffffffffffffffffffffffff1673ffffffffffffffffffffffffffffffffffffffff168152602001908152602001600020600082825461028a919061090d565b9250508190555034600360008282546102a3919061090d565b925050819055503373ffffffffffffffffffffffffffffffffffffffff167f5af8184bef8e4b45eb9f6ed7734d04da38ced226495548f46e0c8ff8d7d9a524346040516102f091906106fa565b60405180910390a2565b60008054906101000a900473ffffffffffffffffffffffffffffffffffffffff1673ffffffffffffffffffffffffffffffffffffffff163373ffffffffffffffffffffffffffffffffffffffff1614610388576040517f08c379a000000000000000000000000000000000000000000000000000000000815260040161037f9061098d565b60405180910390fd5b60015460035410156103cf576040517f08c379a00000000000000000000000000000000000000000000000000000000081526004016103c6906109f9565b60405180910390fd5b60004711610412576040517f08c379a000000000000000000000000000000000000000000000000000000000815260040161040990610a65565b60405180910390fd5b600047905060008054906101000a900473ffffffffffffffffffffffffffffffffffffffff1673ffffffffffffffffffffffffffffffffffffffff166108fc829081150290604051600060405180830381858888f1935050505015801561047d573d6000803e3d6000fd5b507f7084f5476618d8e60b11ef0d7d3f06914655adb8793e28ff7f018d4c76d505d560008054906101000a900473ffffffffffffffffffffffffffffffffffffffff16826040516104cf929190610a85565b60405180910390a150565b60025481565b60015481565b60046020528060005260406000206000915090505481565b6002544211610542576040517f08c379a000000000000000000000000000000000000000000000000000000000815260040161053990610afa565b60405180910390fd5b60015460035410610588576040517f08c379a000000000000000000000000000000000000000000000000000000000815260040161057f90610b66565b60405180910390fd5b6000600460003373ffffffffffffffffffffffffffffffffffffffff1673ffffffffffffffffffffffffffffffffffffffff1681526020019081526020016000205490506000811161060f576040517f08c379a000000000000000000000000000000000000000000000000000000000815260040161060690610bd2565b60405180910390fd5b6000600460003373ffffffffffffffffffffffffffffffffffffffff1673ffffffffffffffffffffffffffffffffffffffff1681526020019081526020016000208190555080600360008282546106669190610bf2565b925050819055503373ffffffffffffffffffffffffffffffffffffffff166108fc829081150290604051600060405180830381858888f193505050501580156106b3573d6000803e3d6000fd5b5050565b60008054906101000a900473ffffffffffffffffffffffffffffffffffffffff1681565b60035481565b6000819050919050565b6106f4816106e1565b82525050565b600060208201905061070f60008301846106eb565b92915050565b600080fd5b600073ffffffffffffffffffffffffffffffffffffffff82169050919050565b60006107458261071a565b9050919050565b6107558161073a565b811461076057600080fd5b50565b6000813590506107728161074c565b92915050565b60006020828403121561078e5761078d610715565b5b600061079c84828501610763565b91505092915050565b6107ae8161073a565b82525050565b60006020820190506107c960008301846107a5565b92915050565b600082825260208201905092915050565b7f46756e64696e6720706572696f64206f76657200000000000000000000000000600082015250565b60006108166013836107cf565b9150610821826107e0565b602082019050919050565b6000602082019050818103600083015261084581610809565b9050919050565b7f436f6e747269627574696f6e206d75737420626520677265617465722074686160008201527f6e207a65726f0000000000000000000000000000000000000000000000000000602082015250565b60006108a86026836107cf565b91506108b38261084c565b604082019050919050565b600060208201905081810360008301526108d78161089b565b9050919050565b7f4e487b7100000000000000000000000000000000000000000000000000000000600052601160045260246000fd5b6000610918826106e1565b9150610923836106e1565b925082820190508082111561093b5761093a6108de565b5b92915050565b7f4f6e6c79206f776e65722063616e207769746864726177000000000000000000600082015250565b60006109776017836107cf565b915061098282610941565b602082019050919050565b600060208201905081810360008301526109a68161096a565b9050919050565b7f476f616c206e6f74207265616368656420796574000000000000000000000000600082015250565b60006109e36014836107cf565b91506109ee826109ad565b602082019050919050565b60006020820190508181036000830152610a12816109d6565b9050919050565b7f4e6f2066756e647320617661696c61626c650000000000000000000000000000600082015250565b6000610a4f6012836107cf565b9150610a5a82610a19565b602082019050919050565b60006020820190508181036000830152610a7e81610a42565b9050919050565b6000604082019050610a9a60008301856107a5565b610aa760208301846106eb565b9392505050565b7f43616e6e6f7420726566756e64206265666f726520646561646c696e65000000600082015250565b6000610ae4601d836107cf565b9150610aef82610aae565b602082019050919050565b60006020820190508181036000830152610b1381610ad7565b9050919050565b7f476f616c20776173206d65742c206e6f20726566756e64730000000000000000600082015250565b6000610b506018836107cf565b9150610b5b82610b1a565b602082019050919050565b60006020820190508181036000830152610b7f81610b43565b9050919050565b7f4e6f2066756e647320746f20726566756e640000000000000000000000000000600082015250565b6000610bbc6012836107cf565b9150610bc782610b86565b602082019050919050565b60006020820190508181036000830152610beb81610baf565b9050919050565b6000610bfd826106e1565b9150610c08836106e1565b9250828203905081811115610c2057610c1f6108de565b5b9291505056fea264697066735822122037fd979ff314fe03188a1bdd82e4c81190c3fee63649c9dde96e386606514f5464736f6c63430008140033",
  "linkReferences": {},
  "deployedLinkReferences": {}
}